{
  "_format": "hh-sol-artifact-1",
  "contractName": "FundraiserFactory",
  "sourceName": "contracts/FundraiserFactory.sol",
  "abi": [
    {
      "anonymous": false,
      "inputs": [
        {
          "indexed": true,
          "internalType": "contract Fundraiser",
          "name": "fundraiser",
          "type": "address"
        },
        {
          "indexed": true,
          "internalType": "address",
          "name": "owner",
          "type": "address"
        }
      ],
      "name": "FundraiserCreated",
      "type": "event"
    },
    {
      "inputs": [
        {
          "internalType": "string",
          "name": "name",
          "type": "string"
        },
        {
          "internalType": "string",
          "name": "url",
          "type": "string"
        },
        {
          "internalType": "string",
          "name": "imageURL",
          "type": "string"
        },
        {
          "internalType": "string",
          "name": "description",
          "type": "string"
        },
        {
          "internalType": "address payable",
          "name": "beneficiary",
          "type": "address"
        }
      ],
      "name": "createFundraiser",
      "outputs": [],
      "stateMutability": "nonpayable",
      "type": "function"
    },
    {
      "inputs": [],
      "name": "createFundraiserthree",
      "outputs": [],
      "stateMutability": "nonpayable",
      "type": "function"
    },
    {
      "inputs": [
        {
          "internalType": "string",
          "name": "myText",
          "type": "string"
        }
      ],
      "name": "createFundraisertwo",
      "outputs": [],
      "stateMutability": "nonpayable",
      "type": "function"
    },
    {
      "inputs": [
        {
          "internalType": "string",
          "name": "name",
          "type": "string"
        },
        {
          "internalType": "string",
          "name": "url",
          "type": "string"
        },
        {
          "internalType": "string",
          "name": "imageURL",
          "type": "string"
        },
        {
          "internalType": "string",
          "name": "description",
          "type": "string"
        },
        {
          "internalType": "address payable",
          "name": "beneficiary",
          "type": "address"
        }
      ],
      "name": "createFundraisertwo",
      "outputs": [],
      "stateMutability": "nonpayable",
      "type": "function"
    },
    {
      "inputs": [
        {
          "internalType": "uint256",
          "name": "limit",
          "type": "uint256"
        },
        {
          "internalType": "uint256",
          "name": "offset",
          "type": "uint256"
        }
      ],
      "name": "fundraisers",
      "outputs": [
        {
          "internalType": "contract Fundraiser[]",
          "name": "coll",
          "type": "address[]"
        }
      ],
      "stateMutability": "view",
      "type": "function"
    },
    {
      "inputs": [],
      "name": "fundraisersCount",
      "outputs": [
        {
          "internalType": "uint256",
          "name": "",
          "type": "uint256"
        }
      ],
      "stateMutability": "view",
      "type": "function"
    },
    {
      "inputs": [
        {
          "internalType": "uint256",
          "name": "index",
          "type": "uint256"
        }
      ],
      "name": "getFundraiserAt",
      "outputs": [
        {
          "internalType": "contract Fundraiser",
          "name": "",
          "type": "address"
        }
      ],
      "stateMutability": "view",
      "type": "function"
    },
    {
      "inputs": [
        {
          "internalType": "string",
          "name": "myText",
          "type": "string"
        }
      ],
      "name": "set",
      "outputs": [],
      "stateMutability": "nonpayable",
      "type": "function"
    },
    {
      "inputs": [],
      "name": "storedData",
      "outputs": [
        {
          "internalType": "string",
          "name": "",
          "type": "string"
        }
      ],
      "stateMutability": "view",
      "type": "function"
    }
  ],
  "bytecode": "0x608060405234801561001057600080fd5b50612e2f806100206000396000f3fe60806040523480156200001157600080fd5b5060043610620000a05760003560e01c8063704914f8116200006f578063704914f814620001275780637f4dc6b0146200015d5780639d3b4355146200017d578063d11574c4146200019f578063f720cf7314620001d557620000a0565b80630d8b376914620000a557806311d752ad14620000c55780632a1afcd914620000e55780634ed3885e1462000107575b600080fd5b620000c36004803603810190620000bd91906200073c565b620001e1565b005b620000e36004803603810190620000dd9190620007f2565b620001f6565b005b620000ef62000302565b604051620000fe91906200097f565b60405180910390f35b6200012560048036038101906200011f91906200073c565b62000398565b005b6200014560048036038101906200013f9190620009de565b620003ad565b60405162000154919062000b4d565b60405180910390f35b6200017b6004803603810190620001759190620007f2565b62000559565b005b6200018762000560565b60405162000196919062000b82565b60405180910390f35b620001bd6004803603810190620001b7919062000b9f565b6200056c565b604051620001cc919062000be2565b60405180910390f35b620001df620005b6565b005b8060019081620001f2919062000e2b565b5050565b60008585858585336040516200020c90620005b8565b6200021d9695949392919062000f48565b604051809103906000f0801580156200023a573d6000803e3d6000fd5b5090506000819080600181540180825580915050600190039060005260206000200160009091909190916101000a81548173ffffffffffffffffffffffffffffffffffffffff021916908373ffffffffffffffffffffffffffffffffffffffff1602179055503373ffffffffffffffffffffffffffffffffffffffff168173ffffffffffffffffffffffffffffffffffffffff167fa2398daac0c8053a1e3c0280916c2ec6bc884f0959c27e639a4db829b7eabfb160405160405180910390a3505050505050565b60018054620003119062000c2e565b80601f01602080910402602001604051908101604052809291908181526020018280546200033f9062000c2e565b8015620003905780601f10620003645761010080835404028352916020019162000390565b820191906000526020600020905b8154815290600101906020018083116200037257829003601f168201915b505050505081565b8060019081620003a9919062000e2b565b5050565b6060620003b962000560565b821115620003fe576040517f08c379a0000000000000000000000000000000000000000000000000000000008152600401620003f59062001021565b60405180910390fd5b6000826200040b62000560565b62000417919062001072565b90508381106200042857836200042a565b805b9050601481106200043d5760146200043f565b805b90508067ffffffffffffffff8111156200045e576200045d620005f5565b5b6040519080825280602002602001820160405280156200048d5781602001602082028036833780820191505090505b50915060005b81811015620005515760008185620004ac9190620010ad565b81548110620004c057620004bf620010e8565b5b9060005260206000200160009054906101000a900473ffffffffffffffffffffffffffffffffffffffff16838281518110620005015762000500620010e8565b5b602002602001019073ffffffffffffffffffffffffffffffffffffffff16908173ffffffffffffffffffffffffffffffffffffffff16815250508080620005489062001117565b91505062000493565b505092915050565b5050505050565b60008080549050905090565b6000808281548110620005845762000583620010e8565b5b9060005260206000200160009054906101000a900473ffffffffffffffffffffffffffffffffffffffff169050919050565b565b611c95806200116583390190565b6000604051905090565b600080fd5b600080fd5b600080fd5b600080fd5b6000601f19601f8301169050919050565b7f4e487b7100000000000000000000000000000000000000000000000000000000600052604160045260246000fd5b6200062f82620005e4565b810181811067ffffffffffffffff82111715620006515762000650620005f5565b5b80604052505050565b600062000666620005c6565b905062000674828262000624565b919050565b600067ffffffffffffffff821115620006975762000696620005f5565b5b620006a282620005e4565b9050602081019050919050565b82818337600083830152505050565b6000620006d5620006cf8462000679565b6200065a565b905082815260208101848484011115620006f457620006f3620005df565b5b62000701848285620006af565b509392505050565b600082601f830112620007215762000720620005da565b5b813562000733848260208601620006be565b91505092915050565b600060208284031215620007555762000754620005d0565b5b600082013567ffffffffffffffff811115620007765762000775620005d5565b5b620007848482850162000709565b91505092915050565b600073ffffffffffffffffffffffffffffffffffffffff82169050919050565b6000620007ba826200078d565b9050919050565b620007cc81620007ad565b8114620007d857600080fd5b50565b600081359050620007ec81620007c1565b92915050565b600080600080600060a08688031215620008115762000810620005d0565b5b600086013567ffffffffffffffff811115620008325762000831620005d5565b5b620008408882890162000709565b955050602086013567ffffffffffffffff811115620008645762000863620005d5565b5b620008728882890162000709565b945050604086013567ffffffffffffffff811115620008965762000895620005d5565b5b620008a48882890162000709565b935050606086013567ffffffffffffffff811115620008c857620008c7620005d5565b5b620008d68882890162000709565b9250506080620008e988828901620007db565b9150509295509295909350565b600081519050919050565b600082825260208201905092915050565b60005b838110156200093257808201518184015260208101905062000915565b60008484015250505050565b60006200094b82620008f6565b62000957818562000901565b93506200096981856020860162000912565b6200097481620005e4565b840191505092915050565b600060208201905081810360008301526200099b81846200093e565b905092915050565b6000819050919050565b620009b881620009a3565b8114620009c457600080fd5b50565b600081359050620009d881620009ad565b92915050565b60008060408385031215620009f857620009f7620005d0565b5b600062000a0885828601620009c7565b925050602062000a1b85828601620009c7565b9150509250929050565b600081519050919050565b600082825260208201905092915050565b6000819050602082019050919050565b6000819050919050565b600062000a7c62000a7662000a70846200078d565b62000a51565b6200078d565b9050919050565b600062000a908262000a5b565b9050919050565b600062000aa48262000a83565b9050919050565b62000ab68162000a97565b82525050565b600062000aca838362000aab565b60208301905092915050565b6000602082019050919050565b600062000af08262000a25565b62000afc818562000a30565b935062000b098362000a41565b8060005b8381101562000b4057815162000b24888262000abc565b975062000b318362000ad6565b92505060018101905062000b0d565b5085935050505092915050565b6000602082019050818103600083015262000b69818462000ae3565b905092915050565b62000b7c81620009a3565b82525050565b600060208201905062000b99600083018462000b71565b92915050565b60006020828403121562000bb85762000bb7620005d0565b5b600062000bc884828501620009c7565b91505092915050565b62000bdc8162000a97565b82525050565b600060208201905062000bf9600083018462000bd1565b92915050565b7f4e487b7100000000000000000000000000000000000000000000000000000000600052602260045260246000fd5b6000600282049050600182168062000c4757607f821691505b60208210810362000c5d5762000c5c62000bff565b5b50919050565b60008190508160005260206000209050919050565b60006020601f8301049050919050565b600082821b905092915050565b60006008830262000cc77fffffffffffffffffffffffffffffffffffffffffffffffffffffffffffffffff8262000c88565b62000cd3868362000c88565b95508019841693508086168417925050509392505050565b600062000d0c62000d0662000d0084620009a3565b62000a51565b620009a3565b9050919050565b6000819050919050565b62000d288362000ceb565b62000d4062000d378262000d13565b84845462000c95565b825550505050565b600090565b62000d5762000d48565b62000d6481848462000d1d565b505050565b5b8181101562000d8c5762000d8060008262000d4d565b60018101905062000d6a565b5050565b601f82111562000ddb5762000da58162000c63565b62000db08462000c78565b8101602085101562000dc0578190505b62000dd862000dcf8562000c78565b83018262000d69565b50505b505050565b600082821c905092915050565b600062000e006000198460080262000de0565b1980831691505092915050565b600062000e1b838362000ded565b9150826002028217905092915050565b62000e3682620008f6565b67ffffffffffffffff81111562000e525762000e51620005f5565b5b62000e5e825462000c2e565b62000e6b82828562000d90565b600060209050601f83116001811462000ea3576000841562000e8e578287015190505b62000e9a858262000e0d565b86555062000f0a565b601f19841662000eb38662000c63565b60005b8281101562000edd5784890151825560018201915060208501945060208101905062000eb6565b8683101562000efd578489015162000ef9601f89168262000ded565b8355505b6001600288020188555050505b505050505050565b62000f1d81620007ad565b82525050565b600062000f30826200078d565b9050919050565b62000f428162000f23565b82525050565b600060c082019050818103600083015262000f6481896200093e565b9050818103602083015262000f7a81886200093e565b9050818103604083015262000f9081876200093e565b9050818103606083015262000fa681866200093e565b905062000fb7608083018562000f12565b62000fc660a083018462000f37565b979650505050505050565b7f6f6666736574206f7574206f6620626f756e6473000000000000000000000000600082015250565b60006200100960148362000901565b9150620010168262000fd1565b602082019050919050565b600060208201905081810360008301526200103c8162000ffa565b9050919050565b7f4e487b7100000000000000000000000000000000000000000000000000000000600052601160045260246000fd5b60006200107f82620009a3565b91506200108c83620009a3565b9250828203905081811115620010a757620010a662001043565b5b92915050565b6000620010ba82620009a3565b9150620010c783620009a3565b9250828201905080821115620010e257620010e162001043565b5b92915050565b7f4e487b7100000000000000000000000000000000000000000000000000000000600052603260045260246000fd5b60006200112482620009a3565b91507fffffffffffffffffffffffffffffffffffffffffffffffffffffffffffffffff820362001159576200115862001043565b5b60018201905091905056fe60806040526040518060400160405280600281526020017f6d65000000000000000000000000000000000000000000000000000000000000815250600290816200004a91906200058f565b506040518060400160405280600481526020017f6874747000000000000000000000000000000000000000000000000000000000815250600390816200009191906200058f565b506040518060400160405280600881526020017f6a756e6b2e706e6700000000000000000000000000000000000000000000000081525060049081620000d891906200058f565b506040518060400160405280600481526020017f7465737400000000000000000000000000000000000000000000000000000000815250600590816200011f91906200058f565b503480156200012d57600080fd5b5060405162001c9538038062001c95833981810160405281019062000153919062000884565b62000173620001676200024960201b60201c565b6200025160201b60201c565b85600290816200018491906200058f565b5084600390816200019691906200058f565b508360049081620001a891906200058f565b508260059081620001ba91906200058f565b5081600660006101000a81548173ffffffffffffffffffffffffffffffffffffffff021916908373ffffffffffffffffffffffffffffffffffffffff16021790555080600760006101000a81548173ffffffffffffffffffffffffffffffffffffffff021916908373ffffffffffffffffffffffffffffffffffffffff1602179055505050505050506200099c565b600033905090565b60008060009054906101000a900473ffffffffffffffffffffffffffffffffffffffff169050816000806101000a81548173ffffffffffffffffffffffffffffffffffffffff021916908373ffffffffffffffffffffffffffffffffffffffff1602179055508173ffffffffffffffffffffffffffffffffffffffff168173ffffffffffffffffffffffffffffffffffffffff167f8be0079c531659141344cd1fd0a4f28419497f9722a3daafe3b4186f6b6457e060405160405180910390a35050565b600081519050919050565b7f4e487b7100000000000000000000000000000000000000000000000000000000600052604160045260246000fd5b7f4e487b7100000000000000000000000000000000000000000000000000000000600052602260045260246000fd5b600060028204905060018216806200039757607f821691505b602082108103620003ad57620003ac6200034f565b5b50919050565b60008190508160005260206000209050919050565b60006020601f8301049050919050565b600082821b905092915050565b600060088302620004177fffffffffffffffffffffffffffffffffffffffffffffffffffffffffffffffff82620003d8565b620004238683620003d8565b95508019841693508086168417925050509392505050565b6000819050919050565b6000819050919050565b6000620004706200046a62000464846200043b565b62000445565b6200043b565b9050919050565b6000819050919050565b6200048c836200044f565b620004a46200049b8262000477565b848454620003e5565b825550505050565b600090565b620004bb620004ac565b620004c881848462000481565b505050565b5b81811015620004f057620004e4600082620004b1565b600181019050620004ce565b5050565b601f8211156200053f576200050981620003b3565b6200051484620003c8565b8101602085101562000524578190505b6200053c6200053385620003c8565b830182620004cd565b50505b505050565b600082821c905092915050565b6000620005646000198460080262000544565b1980831691505092915050565b60006200057f838362000551565b9150826002028217905092915050565b6200059a8262000315565b67ffffffffffffffff811115620005b657620005b562000320565b5b620005c282546200037e565b620005cf828285620004f4565b600060209050601f831160018114620006075760008415620005f2578287015190505b620005fe858262000571565b8655506200066e565b601f1984166200061786620003b3565b60005b8281101562000641578489015182556001820191506020850194506020810190506200061a565b868310156200066157848901516200065d601f89168262000551565b8355505b6001600288020188555050505b505050505050565b6000604051905090565b600080fd5b600080fd5b600080fd5b600080fd5b6000601f19601f8301169050919050565b620006b08262000694565b810181811067ffffffffffffffff82111715620006d257620006d162000320565b5b80604052505050565b6000620006e762000676565b9050620006f58282620006a5565b919050565b600067ffffffffffffffff82111562000718576200071762000320565b5b620007238262000694565b9050602081019050919050565b60005b838110156200075057808201518184015260208101905062000733565b60008484015250505050565b6000620007736200076d84620006fa565b620006db565b9050828152602081018484840111156200079257620007916200068f565b5b6200079f84828562000730565b509392505050565b600082601f830112620007bf57620007be6200068a565b5b8151620007d18482602086016200075c565b91505092915050565b600073ffffffffffffffffffffffffffffffffffffffff82169050919050565b60006200080782620007da565b9050919050565b6200081981620007fa565b81146200082557600080fd5b50565b60008151905062000839816200080e565b92915050565b60006200084c82620007da565b9050919050565b6200085e816200083f565b81146200086a57600080fd5b50565b6000815190506200087e8162000853565b92915050565b60008060008060008060c08789031215620008a457620008a362000680565b5b600087015167ffffffffffffffff811115620008c557620008c462000685565b5b620008d389828a01620007a7565b965050602087015167ffffffffffffffff811115620008f757620008f662000685565b5b6200090589828a01620007a7565b955050604087015167ffffffffffffffff81111562000929576200092862000685565b5b6200093789828a01620007a7565b945050606087015167ffffffffffffffff8111156200095b576200095a62000685565b5b6200096989828a01620007a7565b93505060806200097c89828a0162000828565b92505060a06200098f89828a016200086d565b9150509295509295509295565b6112e980620009ac6000396000f3fe6080604052600436106100f25760003560e01c80635600f04f1161008a578063b90497e011610059578063b90497e0146102b1578063de2ed893146102dc578063ed88c68e14610307578063f2fde38b14610311576100f2565b80635600f04f14610219578063715018a6146102445780637284e4161461025b5780638da5cb5b14610286576100f2565b80631c31f710116100c65780631c31f710146101835780631f522595146101ac57806338af3eed146101d75780633ccfd60b14610202576100f2565b80625c33e1146100f75780630180b97c1461010157806306fdde031461012c5780631a57f7b414610157575b600080fd5b6100ff61033a565b005b34801561010d57600080fd5b5061011661036f565b6040516101239190610d3b565b60405180910390f35b34801561013857600080fd5b506101416103b9565b60405161014e9190610de6565b60405180910390f35b34801561016357600080fd5b5061016c610447565b60405161017a929190610ec6565b60405180910390f35b34801561018f57600080fd5b506101aa60048036038101906101a59190610f60565b6105bc565b005b3480156101b857600080fd5b506101c161067c565b6040516101ce9190610d3b565b60405180910390f35b3480156101e357600080fd5b506101ec610682565b6040516101f99190610f9c565b60405180910390f35b34801561020e57600080fd5b506102176106a8565b005b34801561022557600080fd5b5061022e6107cc565b60405161023b9190610de6565b60405180910390f35b34801561025057600080fd5b5061025961085a565b005b34801561026757600080fd5b506102706108e2565b60405161027d9190610de6565b60405180910390f35b34801561029257600080fd5b5061029b610970565b6040516102a89190610fd8565b60405180910390f35b3480156102bd57600080fd5b506102c6610999565b6040516102d39190610de6565b60405180910390f35b3480156102e857600080fd5b506102f1610a27565b6040516102fe9190610d3b565b60405180910390f35b61030f610a2d565b005b34801561031d57600080fd5b506103386004803603810190610333919061101f565b610b49565b005b61034f34600854610c4090919063ffffffff16565b600881905550600960008154809291906103689061107b565b9190505550565b6000600160003373ffffffffffffffffffffffffffffffffffffffff1673ffffffffffffffffffffffffffffffffffffffff16815260200190815260200160002080549050905090565b600280546103c6906110f2565b80601f01602080910402602001604051908101604052809291908181526020018280546103f2906110f2565b801561043f5780601f106104145761010080835404028352916020019161043f565b820191906000526020600020905b81548152906001019060200180831161042257829003601f168201915b505050505081565b606080600061045461036f565b90508067ffffffffffffffff8111156104705761046f611123565b5b60405190808252806020026020018201604052801561049e5781602001602082028036833780820191505090505b5092508067ffffffffffffffff8111156104bb576104ba611123565b5b6040519080825280602002602001820160405280156104e95781602001602082028036833780820191505090505b50915060005b818110156105b6576000600160003373ffffffffffffffffffffffffffffffffffffffff1673ffffffffffffffffffffffffffffffffffffffff168152602001908152602001600020828154811061054a57610549611152565b5b90600052602060002090600202019050806000015485838151811061057257610571611152565b5b602002602001018181525050806001015484838151811061059657610595611152565b5b6020026020010181815250505080806105ae9061107b565b9150506104ef565b50509091565b6105c4610c56565b73ffffffffffffffffffffffffffffffffffffffff166105e2610970565b73ffffffffffffffffffffffffffffffffffffffff1614610638576040517f08c379a000000000000000000000000000000000000000000000000000000000815260040161062f906111cd565b60405180910390fd5b80600660006101000a81548173ffffffffffffffffffffffffffffffffffffffff021916908373ffffffffffffffffffffffffffffffffffffffff16021790555050565b60095481565b600660009054906101000a900473ffffffffffffffffffffffffffffffffffffffff1681565b6106b0610c56565b73ffffffffffffffffffffffffffffffffffffffff166106ce610970565b73ffffffffffffffffffffffffffffffffffffffff1614610724576040517f08c379a000000000000000000000000000000000000000000000000000000000815260040161071b906111cd565b60405180910390fd5b6000479050600660009054906101000a900473ffffffffffffffffffffffffffffffffffffffff1673ffffffffffffffffffffffffffffffffffffffff166108fc829081150290604051600060405180830381858888f19350505050158015610791573d6000803e3d6000fd5b507f5b6b431d4476a211bb7d41c20d1aab9ae2321deee0d20be3d9fc9b1093fa6e3d816040516107c19190610d3b565b60405180910390a150565b600380546107d9906110f2565b80601f0160208091040260200160405190810160405280929190818152602001828054610805906110f2565b80156108525780601f1061082757610100808354040283529160200191610852565b820191906000526020600020905b81548152906001019060200180831161083557829003601f168201915b505050505081565b610862610c56565b73ffffffffffffffffffffffffffffffffffffffff16610880610970565b73ffffffffffffffffffffffffffffffffffffffff16146108d6576040517f08c379a00000000000000000000000000000000000000000000000000000000081526004016108cd906111cd565b60405180910390fd5b6108e06000610c5e565b565b600580546108ef906110f2565b80601f016020809104026020016040519081016040528092919081815260200182805461091b906110f2565b80156109685780601f1061093d57610100808354040283529160200191610968565b820191906000526020600020905b81548152906001019060200180831161094b57829003601f168201915b505050505081565b60008060009054906101000a900473ffffffffffffffffffffffffffffffffffffffff16905090565b600480546109a6906110f2565b80601f01602080910402602001604051908101604052809291908181526020018280546109d2906110f2565b8015610a1f5780601f106109f457610100808354040283529160200191610a1f565b820191906000526020600020905b815481529060010190602001808311610a0257829003601f168201915b505050505081565b60085481565b60006040518060400160405280348152602001428152509050600160003373ffffffffffffffffffffffffffffffffffffffff1673ffffffffffffffffffffffffffffffffffffffff16815260200190815260200160002081908060018154018082558091505060019003906000526020600020906002020160009091909190915060008201518160000155602082015181600101555050610ada34600854610c4090919063ffffffff16565b60088190555060096000815480929190610af39061107b565b91905055503373ffffffffffffffffffffffffffffffffffffffff167f264f630d9efa0d07053a31163641d9fcc0adafc9d9e76f1c37c2ce3a558d2c5234604051610b3e9190610d3b565b60405180910390a250565b610b51610c56565b73ffffffffffffffffffffffffffffffffffffffff16610b6f610970565b73ffffffffffffffffffffffffffffffffffffffff1614610bc5576040517f08c379a0000000000000000000000000000000000000000000000000000000008152600401610bbc906111cd565b60405180910390fd5b600073ffffffffffffffffffffffffffffffffffffffff168173ffffffffffffffffffffffffffffffffffffffff1603610c34576040517f08c379a0000000000000000000000000000000000000000000000000000000008152600401610c2b9061125f565b60405180910390fd5b610c3d81610c5e565b50565b60008183610c4e919061127f565b905092915050565b600033905090565b60008060009054906101000a900473ffffffffffffffffffffffffffffffffffffffff169050816000806101000a81548173ffffffffffffffffffffffffffffffffffffffff021916908373ffffffffffffffffffffffffffffffffffffffff1602179055508173ffffffffffffffffffffffffffffffffffffffff168173ffffffffffffffffffffffffffffffffffffffff167f8be0079c531659141344cd1fd0a4f28419497f9722a3daafe3b4186f6b6457e060405160405180910390a35050565b6000819050919050565b610d3581610d22565b82525050565b6000602082019050610d506000830184610d2c565b92915050565b600081519050919050565b600082825260208201905092915050565b60005b83811015610d90578082015181840152602081019050610d75565b60008484015250505050565b6000601f19601f8301169050919050565b6000610db882610d56565b610dc28185610d61565b9350610dd2818560208601610d72565b610ddb81610d9c565b840191505092915050565b60006020820190508181036000830152610e008184610dad565b905092915050565b600081519050919050565b600082825260208201905092915050565b6000819050602082019050919050565b610e3d81610d22565b82525050565b6000610e4f8383610e34565b60208301905092915050565b6000602082019050919050565b6000610e7382610e08565b610e7d8185610e13565b9350610e8883610e24565b8060005b83811015610eb9578151610ea08882610e43565b9750610eab83610e5b565b925050600181019050610e8c565b5085935050505092915050565b60006040820190508181036000830152610ee08185610e68565b90508181036020830152610ef48184610e68565b90509392505050565b600080fd5b600073ffffffffffffffffffffffffffffffffffffffff82169050919050565b6000610f2d82610f02565b9050919050565b610f3d81610f22565b8114610f4857600080fd5b50565b600081359050610f5a81610f34565b92915050565b600060208284031215610f7657610f75610efd565b5b6000610f8484828501610f4b565b91505092915050565b610f9681610f22565b82525050565b6000602082019050610fb16000830184610f8d565b92915050565b6000610fc282610f02565b9050919050565b610fd281610fb7565b82525050565b6000602082019050610fed6000830184610fc9565b92915050565b610ffc81610fb7565b811461100757600080fd5b50565b60008135905061101981610ff3565b92915050565b60006020828403121561103557611034610efd565b5b60006110438482850161100a565b91505092915050565b7f4e487b7100000000000000000000000000000000000000000000000000000000600052601160045260246000fd5b600061108682610d22565b91507fffffffffffffffffffffffffffffffffffffffffffffffffffffffffffffffff82036110b8576110b761104c565b5b600182019050919050565b7f4e487b7100000000000000000000000000000000000000000000000000000000600052602260045260246000fd5b6000600282049050600182168061110a57607f821691505b60208210810361111d5761111c6110c3565b5b50919050565b7f4e487b7100000000000000000000000000000000000000000000000000000000600052604160045260246000fd5b7f4e487b7100000000000000000000000000000000000000000000000000000000600052603260045260246000fd5b7f4f776e61626c653a2063616c6c6572206973206e6f7420746865206f776e6572600082015250565b60006111b7602083610d61565b91506111c282611181565b602082019050919050565b600060208201905081810360008301526111e6816111aa565b9050919050565b7f4f776e61626c653a206e6577206f776e657220697320746865207a65726f206160008201527f6464726573730000000000000000000000000000000000000000000000000000602082015250565b6000611249602683610d61565b9150611254826111ed565b604082019050919050565b600060208201905081810360008301526112788161123c565b9050919050565b600061128a82610d22565b915061129583610d22565b92508282019050808211156112ad576112ac61104c565b5b9291505056fea26469706673582212208d6ef7bfd4b0dc1f8dcbe1ac8c2345d9c072eafc4f18a4f4a4c8e944709e5b9c64736f6c63430008120033a26469706673582212203f54325f4f783345069e2da8be85b5133f2da0282e5349572f31b80b2289e04864736f6c63430008120033",
  "linkReferences": {},
  "deployedLinkReferences": {}
}